{
  "contractName": "Certification",
  "abi": [
    {
      "inputs": [],
      "stateMutability": "nonpayable",
      "type": "constructor"
    },
    {
      "anonymous": false,
      "inputs": [
        {
          "indexed": true,
          "internalType": "bytes32",
          "name": "_certificateId",
          "type": "bytes32"
        }
      ],
      "name": "CertificateGenerated",
      "type": "event"
    },
    {
      "anonymous": false,
      "inputs": [
        {
          "indexed": true,
          "internalType": "address",
          "name": "_issuer",
          "type": "address"
        },
        {
          "indexed": false,
          "internalType": "address",
          "name": "_admin",
          "type": "address"
        }
      ],
      "name": "IssuerRegistered",
      "type": "event"
    },
    {
      "inputs": [],
      "name": "certificate_counter",
      "outputs": [
        {
          "internalType": "uint256",
          "name": "",
          "type": "uint256"
        }
      ],
      "stateMutability": "view",
      "type": "function",
      "constant": true
    },
    {
      "inputs": [],
      "name": "owner",
      "outputs": [
        {
          "internalType": "address",
          "name": "",
          "type": "address"
        }
      ],
      "stateMutability": "view",
      "type": "function",
      "constant": true
    },
    {
      "inputs": [
        {
          "internalType": "string",
          "name": "_id",
          "type": "string"
        },
        {
          "internalType": "string",
          "name": "_candidateName",
          "type": "string"
        },
        {
          "internalType": "string",
          "name": "_university",
          "type": "string"
        },
        {
          "internalType": "string",
          "name": "_acronym",
          "type": "string"
        },
        {
          "internalType": "string",
          "name": "_course",
          "type": "string"
        },
        {
          "internalType": "string",
          "name": "_dateOfIssue",
          "type": "string"
        },
        {
          "internalType": "string",
          "name": "_ipfs_hash",
          "type": "string"
        }
      ],
      "name": "generateCertificate",
      "outputs": [],
      "stateMutability": "nonpayable",
      "type": "function"
    },
    {
      "inputs": [
        {
          "internalType": "address",
          "name": "issuer",
          "type": "address"
        }
      ],
      "name": "issuerRegister",
      "outputs": [],
      "stateMutability": "nonpayable",
      "type": "function"
    },
    {
      "inputs": [
        {
          "internalType": "string",
          "name": "_id",
          "type": "string"
        }
      ],
      "name": "isVerified",
      "outputs": [
        {
          "internalType": "bool",
          "name": "",
          "type": "bool"
        }
      ],
      "stateMutability": "view",
      "type": "function",
      "constant": true
    },
    {
      "inputs": [
        {
          "internalType": "string",
          "name": "_id",
          "type": "string"
        }
      ],
      "name": "getCertificate",
      "outputs": [
        {
          "internalType": "string",
          "name": "",
          "type": "string"
        },
        {
          "internalType": "string",
          "name": "",
          "type": "string"
        },
        {
          "internalType": "string",
          "name": "",
          "type": "string"
        },
        {
          "internalType": "string",
          "name": "",
          "type": "string"
        },
        {
          "internalType": "string",
          "name": "",
          "type": "string"
        },
        {
          "internalType": "string",
          "name": "",
          "type": "string"
        }
      ],
      "stateMutability": "view",
      "type": "function",
      "constant": true
    },
    {
      "inputs": [
        {
          "internalType": "address",
          "name": "_address",
          "type": "address"
        }
      ],
      "name": "getIssuer",
      "outputs": [
        {
          "internalType": "bool",
          "name": "",
          "type": "bool"
        }
      ],
      "stateMutability": "view",
      "type": "function",
      "constant": true
    }
  ],
  "bytecode": "0x608060405234801561001057600080fd5b50733084ef65c0fded7f126e58dee6f9c2f1bcf6f0d7600260006101000a81548173ffffffffffffffffffffffffffffffffffffffff021916908373ffffffffffffffffffffffffffffffffffffffff160217905550600160056000600260009054906101000a900473ffffffffffffffffffffffffffffffffffffffff1673ffffffffffffffffffffffffffffffffffffffff1673ffffffffffffffffffffffffffffffffffffffff16815260200190815260200160002060006101000a81548160ff0219169083151502179055506001600560007318cc1cf8756313267e437b8cde208bc13796e40173ffffffffffffffffffffffffffffffffffffffff1673ffffffffffffffffffffffffffffffffffffffff16815260200190815260200160002060006101000a81548160ff02191690831515021790555060016005600073f19cb762c455c3c8a21436e95df0e67079993cb473ffffffffffffffffffffffffffffffffffffffff1673ffffffffffffffffffffffffffffffffffffffff16815260200190815260200160002060006101000a81548160ff0219169083151502179055506111bb806101c76000396000f3fe608060405234801561001057600080fd5b506004361061007d5760003560e01c80638da5cb5b1161005b5780638da5cb5b146100ec57806393d4edcb1461010a578063ed0f2e7514610126578063fef03da31461015b5761007d565b8063234c76d5146100825780634e435daa146100b257806370b09e24146100ce575b600080fd5b61009c60048036038101906100979190610b4b565b61018b565b6040516100a99190610dc1565b60405180910390f35b6100cc60048036038101906100c79190610b94565b6101d4565b005b6100d661034c565b6040516100e39190610ea7565b60405180910390f35b6100f4610352565b6040516101019190610da6565b60405180910390f35b610124600480360381019061011f9190610b1e565b610378565b005b610140600480360381019061013b9190610b4b565b6104b4565b60405161015296959493929190610ddc565b60405180910390f35b61017560048036038101906101709190610b1e565b610976565b6040516101829190610dc1565b60405180910390f35b600080610197836109cc565b90506004600082815260200190815260200160002060009054906101000a900460ff16156101c95760019150506101cf565b60009150505b919050565b6000808154809291906101e690611021565b919050555060006101f6886109cc565b905060016004600083815260200190815260200160002060006101000a81548160ff0219169083151502179055506040518060c00160405280888152602001878152602001868152602001858152602001838152602001848152506003600083815260200190815260200160002060008201518160000190805190602001906102809291906109f6565b50602082015181600101908051906020019061029d9291906109f6565b5060408201518160020190805190602001906102ba9291906109f6565b5060608201518160030190805190602001906102d79291906109f6565b5060808201518160040190805190602001906102f49291906109f6565b5060a08201518160050190805190602001906103119291906109f6565b50905050807fe011460b1cc08153fb7209e5dce874803c9381e220c37acb627ce15a6627e06a60405160405180910390a25050505050505050565b60005481565b600160009054906101000a900473ffffffffffffffffffffffffffffffffffffffff1681565b60011515600560003373ffffffffffffffffffffffffffffffffffffffff1673ffffffffffffffffffffffffffffffffffffffff16815260200190815260200160002060009054906101000a900460ff1615151461040b576040517f08c379a000000000000000000000000000000000000000000000000000000000815260040161040290610e67565b60405180910390fd5b6001600560008373ffffffffffffffffffffffffffffffffffffffff1673ffffffffffffffffffffffffffffffffffffffff16815260200190815260200160002060006101000a81548160ff0219169083151502179055508073ffffffffffffffffffffffffffffffffffffffff167fd235eec2ad38b3ce50de8679ab6421ab499dea2ce99903a0ec21703ad11de7e1336040516104a99190610da6565b60405180910390a250565b60608060608060608060006104c8886109cc565b90506000600360008381526020019081526020016000206040518060c00160405290816000820180546104fa90610fbe565b80601f016020809104026020016040519081016040528092919081815260200182805461052690610fbe565b80156105735780601f1061054857610100808354040283529160200191610573565b820191906000526020600020905b81548152906001019060200180831161055657829003601f168201915b5050505050815260200160018201805461058c90610fbe565b80601f01602080910402602001604051908101604052809291908181526020018280546105b890610fbe565b80156106055780601f106105da57610100808354040283529160200191610605565b820191906000526020600020905b8154815290600101906020018083116105e857829003601f168201915b5050505050815260200160028201805461061e90610fbe565b80601f016020809104026020016040519081016040528092919081815260200182805461064a90610fbe565b80156106975780601f1061066c57610100808354040283529160200191610697565b820191906000526020600020905b81548152906001019060200180831161067a57829003601f168201915b505050505081526020016003820180546106b090610fbe565b80601f01602080910402602001604051908101604052809291908181526020018280546106dc90610fbe565b80156107295780601f106106fe57610100808354040283529160200191610729565b820191906000526020600020905b81548152906001019060200180831161070c57829003601f168201915b5050505050815260200160048201805461074290610fbe565b80601f016020809104026020016040519081016040528092919081815260200182805461076e90610fbe565b80156107bb5780601f10610790576101008083540402835291602001916107bb565b820191906000526020600020905b81548152906001019060200180831161079e57829003601f168201915b505050505081526020016005820180546107d490610fbe565b80601f016020809104026020016040519081016040528092919081815260200182805461080090610fbe565b801561084d5780601f106108225761010080835404028352916020019161084d565b820191906000526020600020905b81548152906001019060200180831161083057829003601f168201915b5050505050815250509050600060036000848152602001908152602001600020600501805461087b90610fbe565b80601f01602080910402602001604051908101604052809291908181526020018280546108a790610fbe565b80156108f45780601f106108c9576101008083540402835291602001916108f4565b820191906000526020600020905b8154815290600101906020018083116108d757829003601f168201915b50505050509050600081511415610940576040517f08c379a000000000000000000000000000000000000000000000000000000000815260040161093790610e87565b60405180910390fd5b816000015182602001518360400151846060015185608001518660a0015198509850985098509850985050505091939550919395565b6000600560008373ffffffffffffffffffffffffffffffffffffffff1673ffffffffffffffffffffffffffffffffffffffff16815260200190815260200160002060009054906101000a900460ff169050919050565b6000808290506000815114156109e8576000801b9150506109f1565b60208301519150505b919050565b828054610a0290610fbe565b90600052602060002090601f016020900481019282610a245760008555610a6b565b82601f10610a3d57805160ff1916838001178555610a6b565b82800160010185558215610a6b579182015b82811115610a6a578251825591602001919060010190610a4f565b5b509050610a789190610a7c565b5090565b5b80821115610a95576000816000905550600101610a7d565b5090565b6000610aac610aa784610ee7565b610ec2565b905082815260208101848484011115610ac857610ac76110fc565b5b610ad3848285610f7c565b509392505050565b600081359050610aea8161116e565b92915050565b600082601f830112610b0557610b046110f7565b5b8135610b15848260208601610a99565b91505092915050565b600060208284031215610b3457610b33611106565b5b6000610b4284828501610adb565b91505092915050565b600060208284031215610b6157610b60611106565b5b600082013567ffffffffffffffff811115610b7f57610b7e611101565b5b610b8b84828501610af0565b91505092915050565b600080600080600080600060e0888a031215610bb357610bb2611106565b5b600088013567ffffffffffffffff811115610bd157610bd0611101565b5b610bdd8a828b01610af0565b975050602088013567ffffffffffffffff811115610bfe57610bfd611101565b5b610c0a8a828b01610af0565b965050604088013567ffffffffffffffff811115610c2b57610c2a611101565b5b610c378a828b01610af0565b955050606088013567ffffffffffffffff811115610c5857610c57611101565b5b610c648a828b01610af0565b945050608088013567ffffffffffffffff811115610c8557610c84611101565b5b610c918a828b01610af0565b93505060a088013567ffffffffffffffff811115610cb257610cb1611101565b5b610cbe8a828b01610af0565b92505060c088013567ffffffffffffffff811115610cdf57610cde611101565b5b610ceb8a828b01610af0565b91505092959891949750929550565b610d0381610f34565b82525050565b610d1281610f46565b82525050565b6000610d2382610f18565b610d2d8185610f23565b9350610d3d818560208601610f8b565b610d468161110b565b840191505092915050565b6000610d5e601583610f23565b9150610d698261111c565b602082019050919050565b6000610d81601d83610f23565b9150610d8c82611145565b602082019050919050565b610da081610f72565b82525050565b6000602082019050610dbb6000830184610cfa565b92915050565b6000602082019050610dd66000830184610d09565b92915050565b600060c0820190508181036000830152610df68189610d18565b90508181036020830152610e0a8188610d18565b90508181036040830152610e1e8187610d18565b90508181036060830152610e328186610d18565b90508181036080830152610e468185610d18565b905081810360a0830152610e5a8184610d18565b9050979650505050505050565b60006020820190508181036000830152610e8081610d51565b9050919050565b60006020820190508181036000830152610ea081610d74565b9050919050565b6000602082019050610ebc6000830184610d97565b92915050565b6000610ecc610edd565b9050610ed88282610ff0565b919050565b6000604051905090565b600067ffffffffffffffff821115610f0257610f016110c8565b5b610f0b8261110b565b9050602081019050919050565b600081519050919050565b600082825260208201905092915050565b6000610f3f82610f52565b9050919050565b60008115159050919050565b600073ffffffffffffffffffffffffffffffffffffffff82169050919050565b6000819050919050565b82818337600083830152505050565b60005b83811015610fa9578082015181840152602081019050610f8e565b83811115610fb8576000848401525b50505050565b60006002820490506001821680610fd657607f821691505b60208210811415610fea57610fe9611099565b5b50919050565b610ff98261110b565b810181811067ffffffffffffffff82111715611018576110176110c8565b5b80604052505050565b600061102c82610f72565b91507fffffffffffffffffffffffffffffffffffffffffffffffffffffffffffffffff82141561105f5761105e61106a565b5b600182019050919050565b7f4e487b7100000000000000000000000000000000000000000000000000000000600052601160045260246000fd5b7f4e487b7100000000000000000000000000000000000000000000000000000000600052602260045260246000fd5b7f4e487b7100000000000000000000000000000000000000000000000000000000600052604160045260246000fd5b600080fd5b600080fd5b600080fd5b600080fd5b6000601f19601f8301169050919050565b7f596f7520617265206e6f74207065726d69747465640000000000000000000000600082015250565b7f436572746966696361746520696420646f6573206e6f74206578697374000000600082015250565b61117781610f34565b811461118257600080fd5b5056fea2646970667358221220b8281f4a534db18ced918e7e4cc35d1c6d061e337326b81d7816b06a307c770964736f6c63430008070033",
  "immutableReferences": {},
  "source": "// SPDX-License-Identifier: MIT\r\npragma solidity >=0.8.7;\r\n\r\ncontract Certification {\r\n\r\n    uint public certificate_counter;\r\n    address public owner;\r\n    address admin;\r\n\r\n    //contructor\r\n    constructor() {\r\n        admin = 0x3084Ef65c0FDeD7F126E58Dee6F9C2f1BCF6f0d7;\r\n        isIssuer[admin] = true;\r\n        isIssuer[0x18Cc1Cf8756313267e437B8cde208bc13796E401] = true;\r\n        isIssuer[0xf19Cb762c455C3C8a21436e95DF0e67079993Cb4] = true;\r\n    }\r\n\r\n    //struct\r\n    struct Certificate {\r\n        string candidateName;\r\n        string university;\r\n        string acronym;\r\n        string course;\r\n        string ipfs_hash;\r\n        string dateOfIssue;\r\n    }\r\n\r\n    //event\r\n    event CertificateGenerated(bytes32 indexed _certificateId);\r\n    event IssuerRegistered(address indexed _issuer, address _admin);\r\n\r\n    //mapping\r\n    mapping(bytes32 => Certificate) certificates;\r\n    mapping(bytes32 => bool) verified;\r\n    mapping(address => bool) isIssuer;\r\n\r\n    //function\r\n    function generateCertificate(\r\n        string memory _id,\r\n        string memory _candidateName,\r\n        string memory _university,\r\n        string memory _acronym,\r\n        string memory _course,\r\n        string memory _dateOfIssue,\r\n        string memory _ipfs_hash \r\n    ) public {\r\n        //require(isIssuer[msg.sender] == true, \"You are not permitted\");\r\n        certificate_counter++;\r\n        bytes32 byte_id = stringToBytes32(_id);\r\n        verified[byte_id] = true;\r\n        certificates[byte_id] = Certificate(_candidateName, _university, _acronym, _course, _ipfs_hash, _dateOfIssue);\r\n        emit CertificateGenerated(byte_id);\r\n    }\r\n\r\n    function issuerRegister(address issuer) public {\r\n        require(isIssuer[msg.sender] == true, \"You are not permitted\");\r\n        isIssuer[issuer] = true;\r\n        emit IssuerRegistered(issuer, msg.sender);\r\n    }\r\n\r\n    function isVerified(string memory _id) public view returns (bool) {\r\n        bytes32 byte_id = stringToBytes32(_id);\r\n        if (verified[byte_id]) {\r\n            return true;\r\n        }\r\n        return false;\r\n    }\r\n    \r\n    function getCertificate(string memory _id) public view returns (string memory, string memory, string memory, string memory, string memory, string memory) {\r\n        bytes32 byte_id = stringToBytes32(_id);\r\n        Certificate memory cert = certificates[byte_id];\r\n        bytes memory tempEmptyStringNameTest = bytes(\r\n            certificates[byte_id].dateOfIssue\r\n        );\r\n        require(\r\n            tempEmptyStringNameTest.length != 0,\r\n            \"Certificate id does not exist\"\r\n        );\r\n        return (cert.candidateName, cert.university, cert.acronym, cert.course, cert.ipfs_hash, cert.dateOfIssue);\r\n    }\r\n\r\n    function getIssuer(address _address) public view returns (bool) {\r\n        return isIssuer[_address];\r\n    }\r\n\r\n    function uint2str(uint _i) internal pure returns (string memory _uintAsString) {\r\n        if (_i == 0) {\r\n            return \"0\";\r\n        }\r\n        uint j = _i;\r\n        uint len;\r\n        while (j != 0) {\r\n            len++;\r\n            j /= 10;\r\n        }\r\n        bytes memory bstr = new bytes(len);\r\n        uint k = len;\r\n        while (_i != 0) {\r\n            k = k-1;\r\n            uint8 temp = (48 + uint8(_i - _i / 10 * 10));\r\n            bytes1 b1 = bytes1(temp);\r\n            bstr[k] = b1;\r\n            _i /= 10;\r\n        }\r\n        return string(bstr);\r\n    }\r\n\r\n    function stringToBytes32(string memory source) private pure returns (bytes32 result) {\r\n        bytes memory tempEmptyStringTest = bytes(source);\r\n        if (tempEmptyStringTest.length == 0) {\r\n            return 0x0;\r\n        }\r\n        assembly {\r\n                result := mload(add(source, 32))\r\n        }\r\n    }\r\n\r\n}",
  "sourcePath": "C:\\Users\\Chaya\\Desktop\\certificate-verification\\contracts\\Certification.sol",
  "compiler": {
    "name": "solc",
    "version": "0.8.7+commit.e28d00a7.Emscripten.clang"
  },
  "schemaVersion": "3.4.7",
  "updatedAt": "2022-04-23T16:28:14.682Z",
  "networkType": "ethereum",
  "devdoc": {
    "kind": "dev",
    "methods": {},
    "version": 1
  },
  "userdoc": {
    "kind": "user",
    "methods": {},
    "version": 1
  }
}